{
  "_format": "hh-sol-artifact-1",
  "contractName": "LendingVault",
  "sourceName": "contracts/LendingVault.sol",
  "abi": [
    {
      "inputs": [
        {
          "internalType": "address",
          "name": "_tokenAddress",
          "type": "address"
        },
        {
          "internalType": "address",
          "name": "_rwaAddress",
          "type": "address"
        }
      ],
      "stateMutability": "nonpayable",
      "type": "constructor"
    },
    {
      "inputs": [
        {
          "internalType": "address",
          "name": "owner",
          "type": "address"
        }
      ],
      "name": "OwnableInvalidOwner",
      "type": "error"
    },
    {
      "inputs": [
        {
          "internalType": "address",
          "name": "account",
          "type": "address"
        }
      ],
      "name": "OwnableUnauthorizedAccount",
      "type": "error"
    },
    {
      "inputs": [],
      "name": "ReentrancyGuardReentrantCall",
      "type": "error"
    },
    {
      "anonymous": false,
      "inputs": [
        {
          "indexed": false,
          "internalType": "address",
          "name": "auditor",
          "type": "address"
        },
        {
          "indexed": false,
          "internalType": "bool",
          "name": "status",
          "type": "bool"
        }
      ],
      "name": "AuditorStatusChanged",
      "type": "event"
    },
    {
      "anonymous": false,
      "inputs": [
        {
          "indexed": false,
          "internalType": "uint256",
          "name": "loanId",
          "type": "uint256"
        },
        {
          "indexed": false,
          "internalType": "uint256",
          "name": "amount",
          "type": "uint256"
        }
      ],
      "name": "FundsReleased",
      "type": "event"
    },
    {
      "anonymous": false,
      "inputs": [
        {
          "indexed": false,
          "internalType": "address",
          "name": "lender",
          "type": "address"
        },
        {
          "indexed": false,
          "internalType": "uint256",
          "name": "amount",
          "type": "uint256"
        }
      ],
      "name": "LiquidityDeposited",
      "type": "event"
    },
    {
      "anonymous": false,
      "inputs": [
        {
          "indexed": false,
          "internalType": "uint256",
          "name": "loanId",
          "type": "uint256"
        },
        {
          "indexed": false,
          "internalType": "address",
          "name": "reviewer",
          "type": "address"
        },
        {
          "indexed": false,
          "internalType": "uint256",
          "name": "currentApprovals",
          "type": "uint256"
        }
      ],
      "name": "LoanApproved",
      "type": "event"
    },
    {
      "anonymous": false,
      "inputs": [
        {
          "indexed": false,
          "internalType": "uint256",
          "name": "loanId",
          "type": "uint256"
        },
        {
          "indexed": false,
          "internalType": "address",
          "name": "borrower",
          "type": "address"
        },
        {
          "indexed": false,
          "internalType": "uint256",
          "name": "amount",
          "type": "uint256"
        }
      ],
      "name": "LoanRequested",
      "type": "event"
    },
    {
      "anonymous": false,
      "inputs": [
        {
          "indexed": true,
          "internalType": "address",
          "name": "previousOwner",
          "type": "address"
        },
        {
          "indexed": true,
          "internalType": "address",
          "name": "newOwner",
          "type": "address"
        }
      ],
      "name": "OwnershipTransferred",
      "type": "event"
    },
    {
      "anonymous": false,
      "inputs": [
        {
          "indexed": false,
          "internalType": "uint256",
          "name": "loanId",
          "type": "uint256"
        },
        {
          "indexed": false,
          "internalType": "uint256",
          "name": "amount",
          "type": "uint256"
        }
      ],
      "name": "RepaymentReceived",
      "type": "event"
    },
    {
      "inputs": [],
      "name": "LEVERAGE_RATIO",
      "outputs": [
        {
          "internalType": "uint256",
          "name": "",
          "type": "uint256"
        }
      ],
      "stateMutability": "view",
      "type": "function"
    },
    {
      "inputs": [],
      "name": "MIN_APPROVALS",
      "outputs": [
        {
          "internalType": "uint256",
          "name": "",
          "type": "uint256"
        }
      ],
      "stateMutability": "view",
      "type": "function"
    },
    {
      "inputs": [
        {
          "internalType": "uint256",
          "name": "loanId",
          "type": "uint256"
        }
      ],
      "name": "approveLoan",
      "outputs": [],
      "stateMutability": "nonpayable",
      "type": "function"
    },
    {
      "inputs": [
        {
          "internalType": "address",
          "name": "",
          "type": "address"
        }
      ],
      "name": "auditors",
      "outputs": [
        {
          "internalType": "bool",
          "name": "",
          "type": "bool"
        }
      ],
      "stateMutability": "view",
      "type": "function"
    },
    {
      "inputs": [],
      "name": "depositLiquidity",
      "outputs": [],
      "stateMutability": "payable",
      "type": "function"
    },
    {
      "inputs": [
        {
          "internalType": "address",
          "name": "",
          "type": "address"
        }
      ],
      "name": "lenderBalances",
      "outputs": [
        {
          "internalType": "uint256",
          "name": "",
          "type": "uint256"
        }
      ],
      "stateMutability": "view",
      "type": "function"
    },
    {
      "inputs": [
        {
          "internalType": "uint256",
          "name": "",
          "type": "uint256"
        },
        {
          "internalType": "address",
          "name": "",
          "type": "address"
        }
      ],
      "name": "loanAuditorApprovals",
      "outputs": [
        {
          "internalType": "bool",
          "name": "",
          "type": "bool"
        }
      ],
      "stateMutability": "view",
      "type": "function"
    },
    {
      "inputs": [
        {
          "internalType": "uint256",
          "name": "",
          "type": "uint256"
        }
      ],
      "name": "loans",
      "outputs": [
        {
          "internalType": "address",
          "name": "borrower",
          "type": "address"
        },
        {
          "internalType": "uint256",
          "name": "collateralTokenId",
          "type": "uint256"
        },
        {
          "internalType": "uint256",
          "name": "amountLent",
          "type": "uint256"
        },
        {
          "internalType": "uint256",
          "name": "startTime",
          "type": "uint256"
        },
        {
          "internalType": "uint256",
          "name": "interestRate",
          "type": "uint256"
        },
        {
          "internalType": "uint256",
          "name": "approvalCount",
          "type": "uint256"
        },
        {
          "internalType": "bool",
          "name": "isReleased",
          "type": "bool"
        },
        {
          "internalType": "bool",
          "name": "isRepaid",
          "type": "bool"
        }
      ],
      "stateMutability": "view",
      "type": "function"
    },
    {
      "inputs": [],
      "name": "nextLoanId",
      "outputs": [
        {
          "internalType": "uint256",
          "name": "",
          "type": "uint256"
        }
      ],
      "stateMutability": "view",
      "type": "function"
    },
    {
      "inputs": [
        {
          "internalType": "address",
          "name": "",
          "type": "address"
        },
        {
          "internalType": "address",
          "name": "",
          "type": "address"
        },
        {
          "internalType": "uint256",
          "name": "",
          "type": "uint256"
        },
        {
          "internalType": "bytes",
          "name": "",
          "type": "bytes"
        }
      ],
      "name": "onERC721Received",
      "outputs": [
        {
          "internalType": "bytes4",
          "name": "",
          "type": "bytes4"
        }
      ],
      "stateMutability": "pure",
      "type": "function"
    },
    {
      "inputs": [],
      "name": "owner",
      "outputs": [
        {
          "internalType": "address",
          "name": "",
          "type": "address"
        }
      ],
      "stateMutability": "view",
      "type": "function"
    },
    {
      "inputs": [
        {
          "internalType": "uint256",
          "name": "loanId",
          "type": "uint256"
        }
      ],
      "name": "releaseFunds",
      "outputs": [],
      "stateMutability": "nonpayable",
      "type": "function"
    },
    {
      "inputs": [],
      "name": "renounceOwnership",
      "outputs": [],
      "stateMutability": "nonpayable",
      "type": "function"
    },
    {
      "inputs": [
        {
          "internalType": "uint256",
          "name": "loanId",
          "type": "uint256"
        }
      ],
      "name": "repayLoan",
      "outputs": [],
      "stateMutability": "nonpayable",
      "type": "function"
    },
    {
      "inputs": [
        {
          "internalType": "uint256",
          "name": "tokenId",
          "type": "uint256"
        },
        {
          "internalType": "uint256",
          "name": "amountInTHY",
          "type": "uint256"
        },
        {
          "internalType": "uint256",
          "name": "interestRateBps",
          "type": "uint256"
        }
      ],
      "name": "requestLoan",
      "outputs": [],
      "stateMutability": "nonpayable",
      "type": "function"
    },
    {
      "inputs": [],
      "name": "rwaContract",
      "outputs": [
        {
          "internalType": "contract ThyseasRWA",
          "name": "",
          "type": "address"
        }
      ],
      "stateMutability": "view",
      "type": "function"
    },
    {
      "inputs": [
        {
          "internalType": "address",
          "name": "_auditor",
          "type": "address"
        },
        {
          "internalType": "bool",
          "name": "_status",
          "type": "bool"
        }
      ],
      "name": "setAuditor",
      "outputs": [],
      "stateMutability": "nonpayable",
      "type": "function"
    },
    {
      "inputs": [],
      "name": "thyseasToken",
      "outputs": [
        {
          "internalType": "contract ThyseasToken",
          "name": "",
          "type": "address"
        }
      ],
      "stateMutability": "view",
      "type": "function"
    },
    {
      "inputs": [],
      "name": "totalActiveLoansAmount",
      "outputs": [
        {
          "internalType": "uint256",
          "name": "",
          "type": "uint256"
        }
      ],
      "stateMutability": "view",
      "type": "function"
    },
    {
      "inputs": [],
      "name": "totalLiquidityDeposited",
      "outputs": [
        {
          "internalType": "uint256",
          "name": "",
          "type": "uint256"
        }
      ],
      "stateMutability": "view",
      "type": "function"
    },
    {
      "inputs": [
        {
          "internalType": "address",
          "name": "newOwner",
          "type": "address"
        }
      ],
      "name": "transferOwnership",
      "outputs": [],
      "stateMutability": "nonpayable",
      "type": "function"
    },
    {
      "inputs": [
        {
          "internalType": "uint256",
          "name": "amount",
          "type": "uint256"
        }
      ],
      "name": "withdrawLiquidity",
      "outputs": [],
      "stateMutability": "nonpayable",
      "type": "function"
    }
  ],
  "bytecode": "0x60806040523480156200001157600080fd5b506040516200331c3803806200331c8339818101604052810190620000379190620002d6565b33600073ffffffffffffffffffffffffffffffffffffffff168173ffffffffffffffffffffffffffffffffffffffff1603620000ad5760006040517f1e4fbdf7000000000000000000000000000000000000000000000000000000008152600401620000a491906200032e565b60405180910390fd5b620000be81620001a860201b60201c565b506001808190555081600260006101000a81548173ffffffffffffffffffffffffffffffffffffffff021916908373ffffffffffffffffffffffffffffffffffffffff16021790555080600360006101000a81548173ffffffffffffffffffffffffffffffffffffffff021916908373ffffffffffffffffffffffffffffffffffffffff1602179055506001600860003373ffffffffffffffffffffffffffffffffffffffff1673ffffffffffffffffffffffffffffffffffffffff16815260200190815260200160002060006101000a81548160ff02191690831515021790555050506200034b565b60008060009054906101000a900473ffffffffffffffffffffffffffffffffffffffff169050816000806101000a81548173ffffffffffffffffffffffffffffffffffffffff021916908373ffffffffffffffffffffffffffffffffffffffff1602179055508173ffffffffffffffffffffffffffffffffffffffff168173ffffffffffffffffffffffffffffffffffffffff167f8be0079c531659141344cd1fd0a4f28419497f9722a3daafe3b4186f6b6457e060405160405180910390a35050565b600080fd5b600073ffffffffffffffffffffffffffffffffffffffff82169050919050565b60006200029e8262000271565b9050919050565b620002b08162000291565b8114620002bc57600080fd5b50565b600081519050620002d081620002a5565b92915050565b60008060408385031215620002f057620002ef6200026c565b5b60006200030085828601620002bf565b92505060206200031385828601620002bf565b9150509250929050565b620003288162000291565b82525050565b60006020820190506200034560008301846200031d565b92915050565b612fc1806200035b6000396000f3fe6080604052600436106101355760003560e01c806393d78178116100ab578063d9a94d941161006f578063d9a94d94146103e1578063daa657821461040c578063e1ec3c6814610449578063edadbbfe1461048d578063f2fde38b146104b6578063f65dc4a7146104df57610135565b806393d781781461031d578063a27a944d14610348578063aadc1ac114610385578063ab7b1c89146103ae578063ca593c59146103d757610135565b8063715018a6116100fd578063715018a6146102315780637795024f14610248578063847d440a1461027157806387c514591461029c5780638da5cb5b146102c7578063939b789f146102f257610135565b80630a861f2a1461013a578063150b7a021461016357806347f9aa9f146101a05780634905c850146101dd5780634d68282f14610208575b600080fd5b34801561014657600080fd5b50610161600480360381019061015c9190611d89565b61050a565b005b34801561016f57600080fd5b5061018a60048036038101906101859190611e79565b610719565b6040516101979190611f3c565b60405180910390f35b3480156101ac57600080fd5b506101c760048036038101906101c29190611f57565b61072e565b6040516101d49190611f9f565b60405180910390f35b3480156101e957600080fd5b506101f261074e565b6040516101ff9190611fc9565b60405180910390f35b34801561021457600080fd5b5061022f600480360381019061022a9190611d89565b610753565b005b34801561023d57600080fd5b506102466109d8565b005b34801561025457600080fd5b5061026f600480360381019061026a9190612010565b6109ec565b005b34801561027d57600080fd5b50610286610a88565b60405161029391906120af565b60405180910390f35b3480156102a857600080fd5b506102b1610aae565b6040516102be9190611fc9565b60405180910390f35b3480156102d357600080fd5b506102dc610ab4565b6040516102e991906120d9565b60405180910390f35b3480156102fe57600080fd5b50610307610add565b6040516103149190611fc9565b60405180910390f35b34801561032957600080fd5b50610332610ae3565b60405161033f9190611fc9565b60405180910390f35b34801561035457600080fd5b5061036f600480360381019061036a9190611f57565b610ae9565b60405161037c9190611fc9565b60405180910390f35b34801561039157600080fd5b506103ac60048036038101906103a79190611d89565b610b01565b005b3480156103ba57600080fd5b506103d560048036038101906103d09190611d89565b610e57565b005b6103df6111c8565b005b3480156103ed57600080fd5b506103f66112e8565b6040516104039190612115565b60405180910390f35b34801561041857600080fd5b50610433600480360381019061042e9190612130565b61130e565b6040516104409190611f9f565b60405180910390f35b34801561045557600080fd5b50610470600480360381019061046b9190611d89565b61133d565b604051610484989796959493929190612170565b60405180910390f35b34801561049957600080fd5b506104b460048036038101906104af91906121ee565b6113bf565b005b3480156104c257600080fd5b506104dd60048036038101906104d89190611f57565b6117a7565b005b3480156104eb57600080fd5b506104f461182d565b6040516105019190611fc9565b60405180910390f35b610512611832565b80600560003373ffffffffffffffffffffffffffffffffffffffff1673ffffffffffffffffffffffffffffffffffffffff168152602001908152602001600020541015610594576040517f08c379a000000000000000000000000000000000000000000000000000000000815260040161058b9061229e565b60405180910390fd5b600a816004546105a491906122ed565b6105ae9190612321565b600a5411156105f2576040517f08c379a00000000000000000000000000000000000000000000000000000000081526004016105e9906123af565b60405180910390fd5b80600560003373ffffffffffffffffffffffffffffffffffffffff1673ffffffffffffffffffffffffffffffffffffffff168152602001908152602001600020600082825461064191906122ed565b92505081905550806004600082825461065a91906122ed565b9250508190555060003373ffffffffffffffffffffffffffffffffffffffff168260405161068790612400565b60006040518083038185875af1925050503d80600081146106c4576040519150601f19603f3d011682016040523d82523d6000602084013e6106c9565b606091505b505090508061070d576040517f08c379a000000000000000000000000000000000000000000000000000000000815260040161070490612461565b60405180910390fd5b50610716611878565b50565b600063150b7a0260e01b905095945050505050565b60086020528060005260406000206000915054906101000a900460ff1681565b600a81565b61075b611832565b60006006600083815260200190815260200160002090506003816005015410156107ba576040517f08c379a00000000000000000000000000000000000000000000000000000000081526004016107b1906124cd565b60405180910390fd5b8060060160009054906101000a900460ff161561080c576040517f08c379a000000000000000000000000000000000000000000000000000000000815260040161080390612539565b60405180910390fd5b600a60045461081b9190612321565b8160020154600a5461082d9190612559565b111561086e576040517f08c379a0000000000000000000000000000000000000000000000000000000008152600401610865906125d9565b60405180910390fd5b60018160060160006101000a81548160ff0219169083151502179055504281600301819055508060020154600a60008282546108aa9190612559565b92505081905550600260009054906101000a900473ffffffffffffffffffffffffffffffffffffffff1673ffffffffffffffffffffffffffffffffffffffff166340c10f198260000160009054906101000a900473ffffffffffffffffffffffffffffffffffffffff1683600201546040518363ffffffff1660e01b81526004016109369291906125f9565b600060405180830381600087803b15801561095057600080fd5b505af1158015610964573d6000803e3d6000fd5b505050507f80230996023d69b50793fa73f1919127c9d8e741d3989743c479169f22e7a28882826002015460405161099d929190612622565b60405180910390a16109cc604051806060016040528060228152602001612f6a60229139838360020154611881565b506109d5611878565b50565b6109e0611920565b6109ea60006119a7565b565b6109f4611920565b80600860008473ffffffffffffffffffffffffffffffffffffffff1673ffffffffffffffffffffffffffffffffffffffff16815260200190815260200160002060006101000a81548160ff0219169083151502179055507f1165c4ec0e7145e5d3d0a49cc9319da0affabeb01417c41ee294bacc7b221e568282604051610a7c92919061264b565b60405180910390a15050565b600260009054906101000a900473ffffffffffffffffffffffffffffffffffffffff1681565b60075481565b60008060009054906101000a900473ffffffffffffffffffffffffffffffffffffffff16905090565b600a5481565b60045481565b60056020528060005260406000206000915090505481565b600860003373ffffffffffffffffffffffffffffffffffffffff1673ffffffffffffffffffffffffffffffffffffffff16815260200190815260200160002060009054906101000a900460ff16610b8d576040517f08c379a0000000000000000000000000000000000000000000000000000000008152600401610b84906126c0565b60405180910390fd5b600073ffffffffffffffffffffffffffffffffffffffff166006600083815260200190815260200160002060000160009054906101000a900473ffffffffffffffffffffffffffffffffffffffff1673ffffffffffffffffffffffffffffffffffffffff1603610c32576040517f08c379a0000000000000000000000000000000000000000000000000000000008152600401610c299061272c565b60405180910390fd5b6009600082815260200190815260200160002060003373ffffffffffffffffffffffffffffffffffffffff1673ffffffffffffffffffffffffffffffffffffffff16815260200190815260200160002060009054906101000a900460ff1615610cd0576040517f08c379a0000000000000000000000000000000000000000000000000000000008152600401610cc790612798565b60405180910390fd5b6006600082815260200190815260200160002060060160009054906101000a900460ff1615610d34576040517f08c379a0000000000000000000000000000000000000000000000000000000008152600401610d2b90612539565b60405180910390fd5b60016009600083815260200190815260200160002060003373ffffffffffffffffffffffffffffffffffffffff1673ffffffffffffffffffffffffffffffffffffffff16815260200190815260200160002060006101000a81548160ff021916908315150217905550600660008281526020019081526020016000206005016000815480929190610dc4906127b8565b91905055507f2b993938baa27c88e77a207903d275c96fa30ae5949a3ea5cd56e466e4f5c89181336006600085815260200190815260200160002060050154604051610e1293929190612800565b60405180910390a1610e54604051806060016040528060268152602001612f236026913933836006600086815260200190815260200160002060050154611a6b565b50565b610e5f611832565b60006006600083815260200190815260200160002090508060060160009054906101000a900460ff16610ec7576040517f08c379a0000000000000000000000000000000000000000000000000000000008152600401610ebe90612883565b60405180910390fd5b8060060160019054906101000a900460ff1615610f19576040517f08c379a0000000000000000000000000000000000000000000000000000000008152600401610f10906128ef565b60405180910390fd5b600081600201549050600260009054906101000a900473ffffffffffffffffffffffffffffffffffffffff1673ffffffffffffffffffffffffffffffffffffffff166323b872dd3330846040518463ffffffff1660e01b8152600401610f819392919061290f565b6020604051808303816000875af1158015610fa0573d6000803e3d6000fd5b505050506040513d601f19601f82011682018060405250810190610fc4919061295b565b50600260009054906101000a900473ffffffffffffffffffffffffffffffffffffffff1673ffffffffffffffffffffffffffffffffffffffff16639dc29fac30836040518363ffffffff1660e01b81526004016110229291906125f9565b600060405180830381600087803b15801561103c57600080fd5b505af1158015611050573d6000803e3d6000fd5b5050505060018260060160016101000a81548160ff02191690831515021790555080600a600082825461108391906122ed565b92505081905550600360009054906101000a900473ffffffffffffffffffffffffffffffffffffffff1673ffffffffffffffffffffffffffffffffffffffff166342842e0e308460000160009054906101000a900473ffffffffffffffffffffffffffffffffffffffff1685600101546040518463ffffffff1660e01b81526004016111119392919061290f565b600060405180830381600087803b15801561112b57600080fd5b505af115801561113f573d6000803e3d6000fd5b505050507f93779ca16187e897d4f01a19100fe66162991c20afb461c7e2628809196deb0d8382604051611174929190612622565b60405180910390a16111bb6040518060400160405280600e81526020017f4c6f616e2025732072657061696400000000000000000000000000000000000081525084611b0d565b50506111c5611878565b50565b6111d0611832565b60003411611213576040517f08c379a000000000000000000000000000000000000000000000000000000000815260040161120a906129d4565b60405180910390fd5b34600560003373ffffffffffffffffffffffffffffffffffffffff1673ffffffffffffffffffffffffffffffffffffffff16815260200190815260200160002060008282546112629190612559565b92505081905550346004600082825461127b9190612559565b925050819055507f7ff07ce9a287649537e4b012e45cf012d90228b12e2b56bb03515a6b5436fcdf33346040516112b39291906125f9565b60405180910390a16112de604051806060016040528060218152602001612f49602191393334611ba9565b6112e6611878565b565b600360009054906101000a900473ffffffffffffffffffffffffffffffffffffffff1681565b60096020528160005260406000206020528060005260406000206000915091509054906101000a900460ff1681565b60066020528060005260406000206000915090508060000160009054906101000a900473ffffffffffffffffffffffffffffffffffffffff16908060010154908060020154908060030154908060040154908060050154908060060160009054906101000a900460ff16908060060160019054906101000a900460ff16905088565b6113c7611832565b6114066040518060400160405280602081526020017f52657175657374696e67206c6f616e20666f7220546f6b656e2049443a20257381525084611b0d565b600360009054906101000a900473ffffffffffffffffffffffffffffffffffffffff1673ffffffffffffffffffffffffffffffffffffffff166342842e0e3330866040518463ffffffff1660e01b81526004016114659392919061290f565b600060405180830381600087803b15801561147f57600080fd5b505af1158015611493573d6000803e3d6000fd5b505050506000600360009054906101000a900473ffffffffffffffffffffffffffffffffffffffff1673ffffffffffffffffffffffffffffffffffffffff1663a1f24b3d856040518263ffffffff1660e01b81526004016114f49190611fc9565b600060405180830381865afa158015611511573d6000803e3d6000fd5b505050506040513d6000823e3d601f19601f8201168201806040525081019061153a9190612c58565b90508060600151611580576040517f08c379a000000000000000000000000000000000000000000000000000000000815260040161157790612ced565b60405180910390fd5b6000600a82602001516115939190612321565b9050808411156115d8576040517f08c379a00000000000000000000000000000000000000000000000000000000081526004016115cf90612d59565b60405180910390fd5b6040518061010001604052803373ffffffffffffffffffffffffffffffffffffffff16815260200186815260200185815260200160008152602001848152602001600081526020016000151581526020016000151581525060066000600754815260200190815260200160002060008201518160000160006101000a81548173ffffffffffffffffffffffffffffffffffffffff021916908373ffffffffffffffffffffffffffffffffffffffff1602179055506020820151816001015560408201518160020155606082015181600301556080820151816004015560a0820151816005015560c08201518160060160006101000a81548160ff02191690831515021790555060e08201518160060160016101000a81548160ff0219169083151502179055509050507f97e04be2fd6414727fe9d0400464568f4384aa8b06264119565ca8f6cc2a4b7a600754338660405161173693929190612800565b60405180910390a16117806040518060400160405280601781526020017f4c6f616e2025732072657175657374656420627920257300000000000000000081525060075433611c48565b60076000815480929190611793906127b8565b919050555050506117a2611878565b505050565b6117af611920565b600073ffffffffffffffffffffffffffffffffffffffff168173ffffffffffffffffffffffffffffffffffffffff16036118215760006040517f1e4fbdf700000000000000000000000000000000000000000000000000000000815260040161181891906120d9565b60405180910390fd5b61182a816119a7565b50565b600381565b60026001540361186e576040517f3ee5aeb500000000000000000000000000000000000000000000000000000000815260040160405180910390fd5b6002600181905550565b60018081905550565b61191b83838360405160240161189993929190612dbd565b6040516020818303038152906040527fca47c4eb000000000000000000000000000000000000000000000000000000007bffffffffffffffffffffffffffffffffffffffffffffffffffffffff19166020820180517bffffffffffffffffffffffffffffffffffffffffffffffffffffffff8381831617835250505050611ce7565b505050565b611928611d01565b73ffffffffffffffffffffffffffffffffffffffff16611946610ab4565b73ffffffffffffffffffffffffffffffffffffffff16146119a557611969611d01565b6040517f118cdaa700000000000000000000000000000000000000000000000000000000815260040161199c91906120d9565b60405180910390fd5b565b60008060009054906101000a900473ffffffffffffffffffffffffffffffffffffffff169050816000806101000a81548173ffffffffffffffffffffffffffffffffffffffff021916908373ffffffffffffffffffffffffffffffffffffffff1602179055508173ffffffffffffffffffffffffffffffffffffffff168173ffffffffffffffffffffffffffffffffffffffff167f8be0079c531659141344cd1fd0a4f28419497f9722a3daafe3b4186f6b6457e060405160405180910390a35050565b611b0784848484604051602401611a859493929190612dfb565b6040516020818303038152906040527ff8f51b1e000000000000000000000000000000000000000000000000000000007bffffffffffffffffffffffffffffffffffffffffffffffffffffffff19166020820180517bffffffffffffffffffffffffffffffffffffffffffffffffffffffff8381831617835250505050611ce7565b50505050565b611ba58282604051602401611b23929190612e47565b6040516020818303038152906040527fb60e72cc000000000000000000000000000000000000000000000000000000007bffffffffffffffffffffffffffffffffffffffffffffffffffffffff19166020820180517bffffffffffffffffffffffffffffffffffffffffffffffffffffffff8381831617835250505050611ce7565b5050565b611c43838383604051602401611bc193929190612e77565b6040516020818303038152906040527f0d26b925000000000000000000000000000000000000000000000000000000007bffffffffffffffffffffffffffffffffffffffffffffffffffffffff19166020820180517bffffffffffffffffffffffffffffffffffffffffffffffffffffffff8381831617835250505050611ce7565b505050565b611ce2838383604051602401611c6093929190612eb5565b6040516020818303038152906040527f1c7ec448000000000000000000000000000000000000000000000000000000007bffffffffffffffffffffffffffffffffffffffffffffffffffffffff19166020820180517bffffffffffffffffffffffffffffffffffffffffffffffffffffffff8381831617835250505050611ce7565b505050565b611cfe81611cf6611d09611d2a565b63ffffffff16565b50565b600033905090565b60006a636f6e736f6c652e6c6f679050600080835160208501845afa505050565b611d35819050919050565b611d3d612ef3565b565b6000604051905090565b600080fd5b600080fd5b6000819050919050565b611d6681611d53565b8114611d7157600080fd5b50565b600081359050611d8381611d5d565b92915050565b600060208284031215611d9f57611d9e611d49565b5b6000611dad84828501611d74565b91505092915050565b600073ffffffffffffffffffffffffffffffffffffffff82169050919050565b6000611de182611db6565b9050919050565b611df181611dd6565b8114611dfc57600080fd5b50565b600081359050611e0e81611de8565b92915050565b600080fd5b600080fd5b600080fd5b60008083601f840112611e3957611e38611e14565b5b8235905067ffffffffffffffff811115611e5657611e55611e19565b5b602083019150836001820283011115611e7257611e71611e1e565b5b9250929050565b600080600080600060808688031215611e9557611e94611d49565b5b6000611ea388828901611dff565b9550506020611eb488828901611dff565b9450506040611ec588828901611d74565b935050606086013567ffffffffffffffff811115611ee657611ee5611d4e565b5b611ef288828901611e23565b92509250509295509295909350565b60007fffffffff0000000000000000000000000000000000000000000000000000000082169050919050565b611f3681611f01565b82525050565b6000602082019050611f516000830184611f2d565b92915050565b600060208284031215611f6d57611f6c611d49565b5b6000611f7b84828501611dff565b91505092915050565b60008115159050919050565b611f9981611f84565b82525050565b6000602082019050611fb46000830184611f90565b92915050565b611fc381611d53565b82525050565b6000602082019050611fde6000830184611fba565b92915050565b611fed81611f84565b8114611ff857600080fd5b50565b60008135905061200a81611fe4565b92915050565b6000806040838503121561202757612026611d49565b5b600061203585828601611dff565b925050602061204685828601611ffb565b9150509250929050565b6000819050919050565b600061207561207061206b84611db6565b612050565b611db6565b9050919050565b60006120878261205a565b9050919050565b60006120998261207c565b9050919050565b6120a98161208e565b82525050565b60006020820190506120c460008301846120a0565b92915050565b6120d381611dd6565b82525050565b60006020820190506120ee60008301846120ca565b92915050565b60006120ff8261207c565b9050919050565b61210f816120f4565b82525050565b600060208201905061212a6000830184612106565b92915050565b6000806040838503121561214757612146611d49565b5b600061215585828601611d74565b925050602061216685828601611dff565b9150509250929050565b600061010082019050612186600083018b6120ca565b612193602083018a611fba565b6121a06040830189611fba565b6121ad6060830188611fba565b6121ba6080830187611fba565b6121c760a0830186611fba565b6121d460c0830185611f90565b6121e160e0830184611f90565b9998505050505050505050565b60008060006060848603121561220757612206611d49565b5b600061221586828701611d74565b935050602061222686828701611d74565b925050604061223786828701611d74565b9150509250925092565b600082825260208201905092915050565b7f496e73756666696369656e742062616c616e6365000000000000000000000000600082015250565b6000612288601483612241565b915061229382612252565b602082019050919050565b600060208201905081810360008301526122b78161227b565b9050919050565b7f4e487b7100000000000000000000000000000000000000000000000000000000600052601160045260246000fd5b60006122f882611d53565b915061230383611d53565b925082820390508181111561231b5761231a6122be565b5b92915050565b600061232c82611d53565b915061233783611d53565b925082820261234581611d53565b9150828204841483151761235c5761235b6122be565b5b5092915050565b7f4c6971756964697479206c6f636b656420696e206c6f616e7300000000000000600082015250565b6000612399601983612241565b91506123a482612363565b602082019050919050565b600060208201905081810360008301526123c88161238c565b9050919050565b600081905092915050565b50565b60006123ea6000836123cf565b91506123f5826123da565b600082019050919050565b600061240b826123dd565b9150819050919050565b7f5472616e73666572206661696c65640000000000000000000000000000000000600082015250565b600061244b600f83612241565b915061245682612415565b602082019050919050565b6000602082019050818103600083015261247a8161243e565b9050919050565b7f4e6f7420656e6f75676820617070726f76616c73000000000000000000000000600082015250565b60006124b7601483612241565b91506124c282612481565b602082019050919050565b600060208201905081810360008301526124e6816124aa565b9050919050565b7f416c72656164792072656c656173656400000000000000000000000000000000600082015250565b6000612523601083612241565b915061252e826124ed565b602082019050919050565b6000602082019050818103600083015261255281612516565b9050919050565b600061256482611d53565b915061256f83611d53565b9250828201905080821115612587576125866122be565b5b92915050565b7f5661756c742052657365727665204c696d697420526561636865640000000000600082015250565b60006125c3601b83612241565b91506125ce8261258d565b602082019050919050565b600060208201905081810360008301526125f2816125b6565b9050919050565b600060408201905061260e60008301856120ca565b61261b6020830184611fba565b9392505050565b60006040820190506126376000830185611fba565b6126446020830184611fba565b9392505050565b600060408201905061266060008301856120ca565b61266d6020830184611f90565b9392505050565b7f4e6f7420616e2061756469746f72000000000000000000000000000000000000600082015250565b60006126aa600e83612241565b91506126b582612674565b602082019050919050565b600060208201905081810360008301526126d98161269d565b9050919050565b7f4e6f2073756368206c6f616e0000000000000000000000000000000000000000600082015250565b6000612716600c83612241565b9150612721826126e0565b602082019050919050565b6000602082019050818103600083015261274581612709565b9050919050565b7f416c726561647920617070726f76656400000000000000000000000000000000600082015250565b6000612782601083612241565b915061278d8261274c565b602082019050919050565b600060208201905081810360008301526127b181612775565b9050919050565b60006127c382611d53565b91507fffffffffffffffffffffffffffffffffffffffffffffffffffffffffffffffff82036127f5576127f46122be565b5b600182019050919050565b60006060820190506128156000830186611fba565b61282260208301856120ca565b61282f6040830184611fba565b949350505050565b7f4c6f616e206e6f74206163746976650000000000000000000000000000000000600082015250565b600061286d600f83612241565b915061287882612837565b602082019050919050565b6000602082019050818103600083015261289c81612860565b9050919050565b7f416c726561647920726570616964000000000000000000000000000000000000600082015250565b60006128d9600e83612241565b91506128e4826128a3565b602082019050919050565b60006020820190508181036000830152612908816128cc565b9050919050565b600060608201905061292460008301866120ca565b61293160208301856120ca565b61293e6040830184611fba565b949350505050565b60008151905061295581611fe4565b92915050565b60006020828403121561297157612970611d49565b5b600061297f84828501612946565b91505092915050565b7f4d757374206465706f73697420736f6d657468696e6700000000000000000000600082015250565b60006129be601683612241565b91506129c982612988565b602082019050919050565b600060208201905081810360008301526129ed816129b1565b9050919050565b600080fd5b6000601f19601f8301169050919050565b7f4e487b7100000000000000000000000000000000000000000000000000000000600052604160045260246000fd5b612a42826129f9565b810181811067ffffffffffffffff82111715612a6157612a60612a0a565b5b80604052505050565b6000612a74611d3f565b9050612a808282612a39565b919050565b600080fd5b600080fd5b600067ffffffffffffffff821115612aaa57612aa9612a0a565b5b612ab3826129f9565b9050602081019050919050565b60005b83811015612ade578082015181840152602081019050612ac3565b60008484015250505050565b6000612afd612af884612a8f565b612a6a565b905082815260208101848484011115612b1957612b18612a8a565b5b612b24848285612ac0565b509392505050565b600082601f830112612b4157612b40611e14565b5b8151612b51848260208601612aea565b91505092915050565b600081519050612b6981611d5d565b92915050565b60038110612b7c57600080fd5b50565b600081519050612b8e81612b6f565b92915050565b600060a08284031215612baa57612ba96129f4565b5b612bb460a0612a6a565b9050600082015167ffffffffffffffff811115612bd457612bd3612a85565b5b612be084828501612b2c565b6000830152506020612bf484828501612b5a565b6020830152506040612c0884828501612b7f565b6040830152506060612c1c84828501612946565b606083015250608082015167ffffffffffffffff811115612c4057612c3f612a85565b5b612c4c84828501612b2c565b60808301525092915050565b600060208284031215612c6e57612c6d611d49565b5b600082015167ffffffffffffffff811115612c8c57612c8b611d4e565b5b612c9884828501612b94565b91505092915050565b7f4173736574206d75737420626520766572696669656420666972737400000000600082015250565b6000612cd7601c83612241565b9150612ce282612ca1565b602082019050919050565b60006020820190508181036000830152612d0681612cca565b9050919050565b7f4578636565647320313078204c65766572616765206c696d6974000000000000600082015250565b6000612d43601a83612241565b9150612d4e82612d0d565b602082019050919050565b60006020820190508181036000830152612d7281612d36565b9050919050565b600081519050919050565b6000612d8f82612d79565b612d998185612241565b9350612da9818560208601612ac0565b612db2816129f9565b840191505092915050565b60006060820190508181036000830152612dd78186612d84565b9050612de66020830185611fba565b612df36040830184611fba565b949350505050565b60006080820190508181036000830152612e158187612d84565b9050612e2460208301866120ca565b612e316040830185611fba565b612e3e6060830184611fba565b95945050505050565b60006040820190508181036000830152612e618185612d84565b9050612e706020830184611fba565b9392505050565b60006060820190508181036000830152612e918186612d84565b9050612ea060208301856120ca565b612ead6040830184611fba565b949350505050565b60006060820190508181036000830152612ecf8186612d84565b9050612ede6020830185611fba565b612eeb60408301846120ca565b949350505050565b7f4e487b7100000000000000000000000000000000000000000000000000000000600052605160045260246000fdfe41756469746f7220257320617070726f766564206c6f616e2025732e20546f74616c3a2025734c6971756964697479206465706f73697465642062792025733a2025732077656946756e64732052454c454153454420666f72206c6f616e2025733a20257320544859a26469706673582212203a05170613ecc60d40f3157167c2d4a0acfb158c25f51287694f818c81fa559864736f6c63430008140033",
  "linkReferences": {},
  "deployedLinkReferences": {}
}