{
  "_format": "hh-sol-artifact-1",
  "contractName": "LendingVault",
  "sourceName": "contracts/LendingVault.sol",
  "abi": [
    {
      "inputs": [
        {
          "internalType": "address",
          "name": "_tokenAddress",
          "type": "address"
        },
        {
          "internalType": "address",
          "name": "_rwaAddress",
          "type": "address"
        }
      ],
      "stateMutability": "nonpayable",
      "type": "constructor"
    },
    {
      "inputs": [
        {
          "internalType": "address",
          "name": "owner",
          "type": "address"
        }
      ],
      "name": "OwnableInvalidOwner",
      "type": "error"
    },
    {
      "inputs": [
        {
          "internalType": "address",
          "name": "account",
          "type": "address"
        }
      ],
      "name": "OwnableUnauthorizedAccount",
      "type": "error"
    },
    {
      "inputs": [],
      "name": "ReentrancyGuardReentrantCall",
      "type": "error"
    },
    {
      "anonymous": false,
      "inputs": [
        {
          "indexed": false,
          "internalType": "address",
          "name": "auditor",
          "type": "address"
        },
        {
          "indexed": false,
          "internalType": "bool",
          "name": "status",
          "type": "bool"
        }
      ],
      "name": "AuditorStatusChanged",
      "type": "event"
    },
    {
      "anonymous": false,
      "inputs": [
        {
          "indexed": false,
          "internalType": "uint256",
          "name": "loanId",
          "type": "uint256"
        },
        {
          "indexed": false,
          "internalType": "uint256",
          "name": "amount",
          "type": "uint256"
        }
      ],
      "name": "FundsReleased",
      "type": "event"
    },
    {
      "anonymous": false,
      "inputs": [
        {
          "indexed": false,
          "internalType": "address",
          "name": "lender",
          "type": "address"
        },
        {
          "indexed": false,
          "internalType": "uint256",
          "name": "amount",
          "type": "uint256"
        }
      ],
      "name": "LiquidityDeposited",
      "type": "event"
    },
    {
      "anonymous": false,
      "inputs": [
        {
          "indexed": false,
          "internalType": "uint256",
          "name": "loanId",
          "type": "uint256"
        },
        {
          "indexed": false,
          "internalType": "address",
          "name": "reviewer",
          "type": "address"
        },
        {
          "indexed": false,
          "internalType": "uint256",
          "name": "currentApprovals",
          "type": "uint256"
        }
      ],
      "name": "LoanApproved",
      "type": "event"
    },
    {
      "anonymous": false,
      "inputs": [
        {
          "indexed": false,
          "internalType": "uint256",
          "name": "loanId",
          "type": "uint256"
        },
        {
          "indexed": false,
          "internalType": "address",
          "name": "borrower",
          "type": "address"
        },
        {
          "indexed": false,
          "internalType": "uint256",
          "name": "amount",
          "type": "uint256"
        }
      ],
      "name": "LoanRequested",
      "type": "event"
    },
    {
      "anonymous": false,
      "inputs": [
        {
          "indexed": true,
          "internalType": "address",
          "name": "previousOwner",
          "type": "address"
        },
        {
          "indexed": true,
          "internalType": "address",
          "name": "newOwner",
          "type": "address"
        }
      ],
      "name": "OwnershipTransferred",
      "type": "event"
    },
    {
      "anonymous": false,
      "inputs": [
        {
          "indexed": false,
          "internalType": "uint256",
          "name": "loanId",
          "type": "uint256"
        },
        {
          "indexed": false,
          "internalType": "uint256",
          "name": "amount",
          "type": "uint256"
        }
      ],
      "name": "RepaymentReceived",
      "type": "event"
    },
    {
      "inputs": [],
      "name": "LENDER_INTEREST_RATE",
      "outputs": [
        {
          "internalType": "uint256",
          "name": "",
          "type": "uint256"
        }
      ],
      "stateMutability": "view",
      "type": "function"
    },
    {
      "inputs": [],
      "name": "LEVERAGE_RATIO",
      "outputs": [
        {
          "internalType": "uint256",
          "name": "",
          "type": "uint256"
        }
      ],
      "stateMutability": "view",
      "type": "function"
    },
    {
      "inputs": [],
      "name": "LOCK_PERIOD",
      "outputs": [
        {
          "internalType": "uint256",
          "name": "",
          "type": "uint256"
        }
      ],
      "stateMutability": "view",
      "type": "function"
    },
    {
      "inputs": [],
      "name": "MIN_APPROVALS",
      "outputs": [
        {
          "internalType": "uint256",
          "name": "",
          "type": "uint256"
        }
      ],
      "stateMutability": "view",
      "type": "function"
    },
    {
      "inputs": [
        {
          "internalType": "uint256",
          "name": "loanId",
          "type": "uint256"
        }
      ],
      "name": "approveLoan",
      "outputs": [],
      "stateMutability": "nonpayable",
      "type": "function"
    },
    {
      "inputs": [
        {
          "internalType": "address",
          "name": "",
          "type": "address"
        }
      ],
      "name": "auditors",
      "outputs": [
        {
          "internalType": "bool",
          "name": "",
          "type": "bool"
        }
      ],
      "stateMutability": "view",
      "type": "function"
    },
    {
      "inputs": [
        {
          "internalType": "uint256",
          "name": "amount",
          "type": "uint256"
        },
        {
          "internalType": "uint256",
          "name": "duration",
          "type": "uint256"
        }
      ],
      "name": "calculateInterest",
      "outputs": [
        {
          "internalType": "uint256",
          "name": "",
          "type": "uint256"
        }
      ],
      "stateMutability": "pure",
      "type": "function"
    },
    {
      "inputs": [],
      "name": "depositLiquidity",
      "outputs": [],
      "stateMutability": "payable",
      "type": "function"
    },
    {
      "inputs": [
        {
          "internalType": "address",
          "name": "",
          "type": "address"
        },
        {
          "internalType": "uint256",
          "name": "",
          "type": "uint256"
        }
      ],
      "name": "depositsByLender",
      "outputs": [
        {
          "internalType": "uint256",
          "name": "amount",
          "type": "uint256"
        },
        {
          "internalType": "uint256",
          "name": "timestamp",
          "type": "uint256"
        },
        {
          "internalType": "uint256",
          "name": "lockUntil",
          "type": "uint256"
        },
        {
          "internalType": "bool",
          "name": "withdrawn",
          "type": "bool"
        }
      ],
      "stateMutability": "view",
      "type": "function"
    },
    {
      "inputs": [
        {
          "internalType": "address",
          "name": "lender",
          "type": "address"
        }
      ],
      "name": "getDepositsCount",
      "outputs": [
        {
          "internalType": "uint256",
          "name": "",
          "type": "uint256"
        }
      ],
      "stateMutability": "view",
      "type": "function"
    },
    {
      "inputs": [
        {
          "internalType": "address",
          "name": "",
          "type": "address"
        }
      ],
      "name": "lenderBalances",
      "outputs": [
        {
          "internalType": "uint256",
          "name": "",
          "type": "uint256"
        }
      ],
      "stateMutability": "view",
      "type": "function"
    },
    {
      "inputs": [
        {
          "internalType": "uint256",
          "name": "",
          "type": "uint256"
        },
        {
          "internalType": "address",
          "name": "",
          "type": "address"
        }
      ],
      "name": "loanAuditorApprovals",
      "outputs": [
        {
          "internalType": "bool",
          "name": "",
          "type": "bool"
        }
      ],
      "stateMutability": "view",
      "type": "function"
    },
    {
      "inputs": [
        {
          "internalType": "uint256",
          "name": "",
          "type": "uint256"
        }
      ],
      "name": "loans",
      "outputs": [
        {
          "internalType": "address",
          "name": "borrower",
          "type": "address"
        },
        {
          "internalType": "uint256",
          "name": "collateralTokenId",
          "type": "uint256"
        },
        {
          "internalType": "uint256",
          "name": "amountLent",
          "type": "uint256"
        },
        {
          "internalType": "uint256",
          "name": "startTime",
          "type": "uint256"
        },
        {
          "internalType": "uint256",
          "name": "interestRate",
          "type": "uint256"
        },
        {
          "internalType": "uint256",
          "name": "approvalCount",
          "type": "uint256"
        },
        {
          "internalType": "bool",
          "name": "isReleased",
          "type": "bool"
        },
        {
          "internalType": "bool",
          "name": "isRepaid",
          "type": "bool"
        }
      ],
      "stateMutability": "view",
      "type": "function"
    },
    {
      "inputs": [],
      "name": "nextLoanId",
      "outputs": [
        {
          "internalType": "uint256",
          "name": "",
          "type": "uint256"
        }
      ],
      "stateMutability": "view",
      "type": "function"
    },
    {
      "inputs": [
        {
          "internalType": "address",
          "name": "",
          "type": "address"
        },
        {
          "internalType": "address",
          "name": "",
          "type": "address"
        },
        {
          "internalType": "uint256",
          "name": "",
          "type": "uint256"
        },
        {
          "internalType": "bytes",
          "name": "",
          "type": "bytes"
        }
      ],
      "name": "onERC721Received",
      "outputs": [
        {
          "internalType": "bytes4",
          "name": "",
          "type": "bytes4"
        }
      ],
      "stateMutability": "pure",
      "type": "function"
    },
    {
      "inputs": [],
      "name": "owner",
      "outputs": [
        {
          "internalType": "address",
          "name": "",
          "type": "address"
        }
      ],
      "stateMutability": "view",
      "type": "function"
    },
    {
      "inputs": [
        {
          "internalType": "uint256",
          "name": "loanId",
          "type": "uint256"
        }
      ],
      "name": "releaseFunds",
      "outputs": [],
      "stateMutability": "nonpayable",
      "type": "function"
    },
    {
      "inputs": [],
      "name": "renounceOwnership",
      "outputs": [],
      "stateMutability": "nonpayable",
      "type": "function"
    },
    {
      "inputs": [
        {
          "internalType": "uint256",
          "name": "loanId",
          "type": "uint256"
        }
      ],
      "name": "repayLoan",
      "outputs": [],
      "stateMutability": "nonpayable",
      "type": "function"
    },
    {
      "inputs": [
        {
          "internalType": "uint256",
          "name": "tokenId",
          "type": "uint256"
        },
        {
          "internalType": "uint256",
          "name": "amountInTHY",
          "type": "uint256"
        },
        {
          "internalType": "uint256",
          "name": "interestRateBps",
          "type": "uint256"
        }
      ],
      "name": "requestLoan",
      "outputs": [],
      "stateMutability": "nonpayable",
      "type": "function"
    },
    {
      "inputs": [],
      "name": "rwaContract",
      "outputs": [
        {
          "internalType": "contract ThyseasRWA",
          "name": "",
          "type": "address"
        }
      ],
      "stateMutability": "view",
      "type": "function"
    },
    {
      "inputs": [
        {
          "internalType": "address",
          "name": "_auditor",
          "type": "address"
        },
        {
          "internalType": "bool",
          "name": "_status",
          "type": "bool"
        }
      ],
      "name": "setAuditor",
      "outputs": [],
      "stateMutability": "nonpayable",
      "type": "function"
    },
    {
      "inputs": [],
      "name": "thyseasToken",
      "outputs": [
        {
          "internalType": "contract ThyseasToken",
          "name": "",
          "type": "address"
        }
      ],
      "stateMutability": "view",
      "type": "function"
    },
    {
      "inputs": [],
      "name": "totalActiveLoansAmount",
      "outputs": [
        {
          "internalType": "uint256",
          "name": "",
          "type": "uint256"
        }
      ],
      "stateMutability": "view",
      "type": "function"
    },
    {
      "inputs": [],
      "name": "totalLiquidityDeposited",
      "outputs": [
        {
          "internalType": "uint256",
          "name": "",
          "type": "uint256"
        }
      ],
      "stateMutability": "view",
      "type": "function"
    },
    {
      "inputs": [
        {
          "internalType": "address",
          "name": "newOwner",
          "type": "address"
        }
      ],
      "name": "transferOwnership",
      "outputs": [],
      "stateMutability": "nonpayable",
      "type": "function"
    },
    {
      "inputs": [
        {
          "internalType": "uint256",
          "name": "depositIndex",
          "type": "uint256"
        }
      ],
      "name": "withdrawLiquidity",
      "outputs": [],
      "stateMutability": "nonpayable",
      "type": "function"
    }
  ],
  "bytecode": "0x60806040523480156200001157600080fd5b506040516200386e3803806200386e8339818101604052810190620000379190620002d6565b33600073ffffffffffffffffffffffffffffffffffffffff168173ffffffffffffffffffffffffffffffffffffffff1603620000ad5760006040517f1e4fbdf7000000000000000000000000000000000000000000000000000000008152600401620000a491906200032e565b60405180910390fd5b620000be81620001a860201b60201c565b506001808190555081600260006101000a81548173ffffffffffffffffffffffffffffffffffffffff021916908373ffffffffffffffffffffffffffffffffffffffff16021790555080600360006101000a81548173ffffffffffffffffffffffffffffffffffffffff021916908373ffffffffffffffffffffffffffffffffffffffff1602179055506001600860003373ffffffffffffffffffffffffffffffffffffffff1673ffffffffffffffffffffffffffffffffffffffff16815260200190815260200160002060006101000a81548160ff02191690831515021790555050506200034b565b60008060009054906101000a900473ffffffffffffffffffffffffffffffffffffffff169050816000806101000a81548173ffffffffffffffffffffffffffffffffffffffff021916908373ffffffffffffffffffffffffffffffffffffffff1602179055508173ffffffffffffffffffffffffffffffffffffffff168173ffffffffffffffffffffffffffffffffffffffff167f8be0079c531659141344cd1fd0a4f28419497f9722a3daafe3b4186f6b6457e060405160405180910390a35050565b600080fd5b600073ffffffffffffffffffffffffffffffffffffffff82169050919050565b60006200029e8262000271565b9050919050565b620002b08162000291565b8114620002bc57600080fd5b50565b600081519050620002d081620002a5565b92915050565b60008060408385031215620002f057620002ef6200026c565b5b60006200030085828601620002bf565b92505060206200031385828601620002bf565b9150509250929050565b620003288162000291565b82525050565b60006020820190506200034560008301846200031d565b92915050565b613513806200035b6000396000f3fe60806040526004361061019c5760003560e01c806393d78178116100ec578063d9a94d941161008a578063edadbbfe11610064578063edadbbfe146105c7578063efdd7c07146105f0578063f2fde38b1461062d578063f65dc4a7146106565761019c565b8063d9a94d941461051b578063daa6578214610546578063e1ec3c68146105835761019c565b8063aadc1ac1116100c6578063aadc1ac114610482578063ab7b1c89146104ab578063c67f7df5146104d4578063ca593c59146105115761019c565b806393d78178146103da578063a27a944d14610405578063a5a4f8c6146104425761019c565b80634d68282f11610159578063847d440a11610133578063847d440a1461032e57806387c51459146103595780638da5cb5b14610384578063939b789f146103af5761019c565b80634d68282f146102c5578063715018a6146102ee5780637795024f146103055761019c565b80630a861f2a146101a1578063150b7a02146101ca5780631820cabb146102075780634451a8291461023257806347f9aa9f1461025d5780634905c8501461029a575b600080fd5b3480156101ad57600080fd5b506101c860048036038101906101c3919061211d565b610681565b005b3480156101d657600080fd5b506101f160048036038101906101ec919061220d565b610985565b6040516101fe91906122d0565b60405180910390f35b34801561021357600080fd5b5061021c61099a565b60405161022991906122fa565b60405180910390f35b34801561023e57600080fd5b506102476109a1565b60405161025491906122fa565b60405180910390f35b34801561026957600080fd5b50610284600480360381019061027f9190612315565b6109a7565b604051610291919061235d565b60405180910390f35b3480156102a657600080fd5b506102af6109c7565b6040516102bc91906122fa565b60405180910390f35b3480156102d157600080fd5b506102ec60048036038101906102e7919061211d565b6109cc565b005b3480156102fa57600080fd5b50610303610c51565b005b34801561031157600080fd5b5061032c600480360381019061032791906123a4565b610c65565b005b34801561033a57600080fd5b50610343610d01565b6040516103509190612443565b60405180910390f35b34801561036557600080fd5b5061036e610d27565b60405161037b91906122fa565b60405180910390f35b34801561039057600080fd5b50610399610d2d565b6040516103a6919061246d565b60405180910390f35b3480156103bb57600080fd5b506103c4610d56565b6040516103d191906122fa565b60405180910390f35b3480156103e657600080fd5b506103ef610d5c565b6040516103fc91906122fa565b60405180910390f35b34801561041157600080fd5b5061042c60048036038101906104279190612315565b610d62565b60405161043991906122fa565b60405180910390f35b34801561044e57600080fd5b5061046960048036038101906104649190612488565b610d7a565b60405161047994939291906124c8565b60405180910390f35b34801561048e57600080fd5b506104a960048036038101906104a4919061211d565b610dd4565b005b3480156104b757600080fd5b506104d260048036038101906104cd919061211d565b61112a565b005b3480156104e057600080fd5b506104fb60048036038101906104f69190612315565b61149b565b60405161050891906122fa565b60405180910390f35b6105196114e7565b005b34801561052757600080fd5b506105306116e8565b60405161053d919061252e565b60405180910390f35b34801561055257600080fd5b5061056d60048036038101906105689190612549565b61170e565b60405161057a919061235d565b60405180910390f35b34801561058f57600080fd5b506105aa60048036038101906105a5919061211d565b61173d565b6040516105be989796959493929190612589565b60405180910390f35b3480156105d357600080fd5b506105ee60048036038101906105e99190612607565b6117bf565b005b3480156105fc57600080fd5b506106176004803603810190610612919061265a565b611ba7565b60405161062491906122fa565b60405180910390f35b34801561063957600080fd5b50610654600480360381019061064f9190612315565b611bda565b005b34801561066257600080fd5b5061066b611c60565b60405161067891906122fa565b60405180910390f35b610689611c65565b6000600a60003373ffffffffffffffffffffffffffffffffffffffff1673ffffffffffffffffffffffffffffffffffffffff16815260200190815260200160002082815481106106dc576106db61269a565b5b906000526020600020906004020190508060030160009054906101000a900460ff161561073e576040517f08c379a000000000000000000000000000000000000000000000000000000000815260040161073590612726565b60405180910390fd5b8060020154421015610785576040517f08c379a000000000000000000000000000000000000000000000000000000000815260040161077c90612792565b60405180910390fd5b60008160000154905060006107a9828460010154426107a491906127e1565b611ba7565b9050600081836107b99190612815565b90506005836004546107cb91906127e1565b6107d59190612849565b600b541115610819576040517f08c379a0000000000000000000000000000000000000000000000000000000008152600401610810906128d7565b60405180910390fd5b60018460030160006101000a81548160ff02191690831515021790555082600560003373ffffffffffffffffffffffffffffffffffffffff1673ffffffffffffffffffffffffffffffffffffffff168152602001908152602001600020600082825461088591906127e1565b92505081905550826004600082825461089e91906127e1565b9250508190555060003373ffffffffffffffffffffffffffffffffffffffff16826040516108cb90612928565b60006040518083038185875af1925050503d8060008114610908576040519150601f19603f3d011682016040523d82523d6000602084013e61090d565b606091505b5050905080610951576040517f08c379a000000000000000000000000000000000000000000000000000000000815260040161094890612989565b60405180910390fd5b6109756040518060600160405280602b8152602001613439602b9139338686611cab565b5050505050610982611d4d565b50565b600063150b7a0260e01b905095945050505050565b62278d0081565b6101f481565b60086020528060005260406000206000915054906101000a900460ff1681565b600581565b6109d4611c65565b6000600660008381526020019081526020016000209050600381600501541015610a33576040517f08c379a0000000000000000000000000000000000000000000000000000000008152600401610a2a906129f5565b60405180910390fd5b8060060160009054906101000a900460ff1615610a85576040517f08c379a0000000000000000000000000000000000000000000000000000000008152600401610a7c90612a61565b60405180910390fd5b6005600454610a949190612849565b8160020154600b54610aa69190612815565b1115610ae7576040517f08c379a0000000000000000000000000000000000000000000000000000000008152600401610ade90612acd565b60405180910390fd5b60018160060160006101000a81548160ff0219169083151502179055504281600301819055508060020154600b6000828254610b239190612815565b92505081905550600260009054906101000a900473ffffffffffffffffffffffffffffffffffffffff1673ffffffffffffffffffffffffffffffffffffffff166340c10f198260000160009054906101000a900473ffffffffffffffffffffffffffffffffffffffff1683600201546040518363ffffffff1660e01b8152600401610baf929190612aed565b600060405180830381600087803b158015610bc957600080fd5b505af1158015610bdd573d6000803e3d6000fd5b505050507f80230996023d69b50793fa73f1919127c9d8e741d3989743c479169f22e7a288828260020154604051610c16929190612b16565b60405180910390a1610c456040518060600160405280602281526020016134bc60229139838360020154611d56565b50610c4e611d4d565b50565b610c59611df5565b610c636000611e7c565b565b610c6d611df5565b80600860008473ffffffffffffffffffffffffffffffffffffffff1673ffffffffffffffffffffffffffffffffffffffff16815260200190815260200160002060006101000a81548160ff0219169083151502179055507f1165c4ec0e7145e5d3d0a49cc9319da0affabeb01417c41ee294bacc7b221e568282604051610cf5929190612b3f565b60405180910390a15050565b600260009054906101000a900473ffffffffffffffffffffffffffffffffffffffff1681565b60075481565b60008060009054906101000a900473ffffffffffffffffffffffffffffffffffffffff16905090565b600b5481565b60045481565b60056020528060005260406000206000915090505481565b600a6020528160005260406000208181548110610d9657600080fd5b9060005260206000209060040201600091509150508060000154908060010154908060020154908060030160009054906101000a900460ff16905084565b600860003373ffffffffffffffffffffffffffffffffffffffff1673ffffffffffffffffffffffffffffffffffffffff16815260200190815260200160002060009054906101000a900460ff16610e60576040517f08c379a0000000000000000000000000000000000000000000000000000000008152600401610e5790612bb4565b60405180910390fd5b600073ffffffffffffffffffffffffffffffffffffffff166006600083815260200190815260200160002060000160009054906101000a900473ffffffffffffffffffffffffffffffffffffffff1673ffffffffffffffffffffffffffffffffffffffff1603610f05576040517f08c379a0000000000000000000000000000000000000000000000000000000008152600401610efc90612c20565b60405180910390fd5b6009600082815260200190815260200160002060003373ffffffffffffffffffffffffffffffffffffffff1673ffffffffffffffffffffffffffffffffffffffff16815260200190815260200160002060009054906101000a900460ff1615610fa3576040517f08c379a0000000000000000000000000000000000000000000000000000000008152600401610f9a90612c8c565b60405180910390fd5b6006600082815260200190815260200160002060060160009054906101000a900460ff1615611007576040517f08c379a0000000000000000000000000000000000000000000000000000000008152600401610ffe90612a61565b60405180910390fd5b60016009600083815260200190815260200160002060003373ffffffffffffffffffffffffffffffffffffffff1673ffffffffffffffffffffffffffffffffffffffff16815260200190815260200160002060006101000a81548160ff02191690831515021790555060066000828152602001908152602001600020600501600081548092919061109790612cac565b91905055507f2b993938baa27c88e77a207903d275c96fa30ae5949a3ea5cd56e466e4f5c891813360066000858152602001908152602001600020600501546040516110e593929190612cf4565b60405180910390a16111276040518060600160405280602681526020016134966026913933836006600086815260200190815260200160002060050154611cab565b50565b611132611c65565b60006006600083815260200190815260200160002090508060060160009054906101000a900460ff1661119a576040517f08c379a000000000000000000000000000000000000000000000000000000000815260040161119190612d77565b60405180910390fd5b8060060160019054906101000a900460ff16156111ec576040517f08c379a00000000000000000000000000000000000000000000000000000000081526004016111e390612de3565b60405180910390fd5b600081600201549050600260009054906101000a900473ffffffffffffffffffffffffffffffffffffffff1673ffffffffffffffffffffffffffffffffffffffff166323b872dd3330846040518463ffffffff1660e01b815260040161125493929190612e03565b6020604051808303816000875af1158015611273573d6000803e3d6000fd5b505050506040513d601f19601f820116820180604052508101906112979190612e4f565b50600260009054906101000a900473ffffffffffffffffffffffffffffffffffffffff1673ffffffffffffffffffffffffffffffffffffffff16639dc29fac30836040518363ffffffff1660e01b81526004016112f5929190612aed565b600060405180830381600087803b15801561130f57600080fd5b505af1158015611323573d6000803e3d6000fd5b5050505060018260060160016101000a81548160ff02191690831515021790555080600b600082825461135691906127e1565b92505081905550600360009054906101000a900473ffffffffffffffffffffffffffffffffffffffff1673ffffffffffffffffffffffffffffffffffffffff166342842e0e308460000160009054906101000a900473ffffffffffffffffffffffffffffffffffffffff1685600101546040518463ffffffff1660e01b81526004016113e493929190612e03565b600060405180830381600087803b1580156113fe57600080fd5b505af1158015611412573d6000803e3d6000fd5b505050507f93779ca16187e897d4f01a19100fe66162991c20afb461c7e2628809196deb0d8382604051611447929190612b16565b60405180910390a161148e6040518060400160405280600e81526020017f4c6f616e2025732072657061696400000000000000000000000000000000000081525084611f40565b5050611498611d4d565b50565b6000600a60008373ffffffffffffffffffffffffffffffffffffffff1673ffffffffffffffffffffffffffffffffffffffff168152602001908152602001600020805490509050919050565b6114ef611c65565b60003411611532576040517f08c379a000000000000000000000000000000000000000000000000000000000815260040161152990612ec8565b60405180910390fd5b600062278d00426115439190612815565b9050600a60003373ffffffffffffffffffffffffffffffffffffffff1673ffffffffffffffffffffffffffffffffffffffff168152602001908152602001600020604051806080016040528034815260200142815260200183815260200160001515815250908060018154018082558091505060019003906000526020600020906004020160009091909190915060008201518160000155602082015181600101556040820151816002015560608201518160030160006101000a81548160ff021916908315150217905550505034600560003373ffffffffffffffffffffffffffffffffffffffff1673ffffffffffffffffffffffffffffffffffffffff16815260200190815260200160002060008282546116609190612815565b9250508190555034600460008282546116799190612815565b925050819055507f7ff07ce9a287649537e4b012e45cf012d90228b12e2b56bb03515a6b5436fcdf33346040516116b1929190612aed565b60405180910390a16116dd60405180606001604052806032815260200161346460329139333484611cab565b506116e6611d4d565b565b600360009054906101000a900473ffffffffffffffffffffffffffffffffffffffff1681565b60096020528160005260406000206020528060005260406000206000915091509054906101000a900460ff1681565b60066020528060005260406000206000915090508060000160009054906101000a900473ffffffffffffffffffffffffffffffffffffffff16908060010154908060020154908060030154908060040154908060050154908060060160009054906101000a900460ff16908060060160019054906101000a900460ff16905088565b6117c7611c65565b6118066040518060400160405280602081526020017f52657175657374696e67206c6f616e20666f7220546f6b656e2049443a20257381525084611f40565b600360009054906101000a900473ffffffffffffffffffffffffffffffffffffffff1673ffffffffffffffffffffffffffffffffffffffff166342842e0e3330866040518463ffffffff1660e01b815260040161186593929190612e03565b600060405180830381600087803b15801561187f57600080fd5b505af1158015611893573d6000803e3d6000fd5b505050506000600360009054906101000a900473ffffffffffffffffffffffffffffffffffffffff1673ffffffffffffffffffffffffffffffffffffffff1663a1f24b3d856040518263ffffffff1660e01b81526004016118f491906122fa565b600060405180830381865afa158015611911573d6000803e3d6000fd5b505050506040513d6000823e3d601f19601f8201168201806040525081019061193a919061314c565b90508060600151611980576040517f08c379a0000000000000000000000000000000000000000000000000000000008152600401611977906131e1565b60405180910390fd5b6000600582602001516119939190612849565b9050808411156119d8576040517f08c379a00000000000000000000000000000000000000000000000000000000081526004016119cf9061324d565b60405180910390fd5b6040518061010001604052803373ffffffffffffffffffffffffffffffffffffffff16815260200186815260200185815260200160008152602001848152602001600081526020016000151581526020016000151581525060066000600754815260200190815260200160002060008201518160000160006101000a81548173ffffffffffffffffffffffffffffffffffffffff021916908373ffffffffffffffffffffffffffffffffffffffff1602179055506020820151816001015560408201518160020155606082015181600301556080820151816004015560a0820151816005015560c08201518160060160006101000a81548160ff02191690831515021790555060e08201518160060160016101000a81548160ff0219169083151502179055509050507f97e04be2fd6414727fe9d0400464568f4384aa8b06264119565ca8f6cc2a4b7a6007543386604051611b3693929190612cf4565b60405180910390a1611b806040518060400160405280601781526020017f4c6f616e2025732072657175657374656420627920257300000000000000000081525060075433611fdc565b60076000815480929190611b9390612cac565b91905055505050611ba2611d4d565b505050565b600064496cebb800826101f485611bbe9190612849565b611bc89190612849565b611bd2919061329c565b905092915050565b611be2611df5565b600073ffffffffffffffffffffffffffffffffffffffff168173ffffffffffffffffffffffffffffffffffffffff1603611c545760006040517f1e4fbdf7000000000000000000000000000000000000000000000000000000008152600401611c4b919061246d565b60405180910390fd5b611c5d81611e7c565b50565b600381565b600260015403611ca1576040517f3ee5aeb500000000000000000000000000000000000000000000000000000000815260040160405180910390fd5b6002600181905550565b611d4784848484604051602401611cc59493929190613311565b6040516020818303038152906040527ff8f51b1e000000000000000000000000000000000000000000000000000000007bffffffffffffffffffffffffffffffffffffffffffffffffffffffff19166020820180517bffffffffffffffffffffffffffffffffffffffffffffffffffffffff838183161783525050505061207b565b50505050565b60018081905550565b611df0838383604051602401611d6e9392919061335d565b6040516020818303038152906040527fca47c4eb000000000000000000000000000000000000000000000000000000007bffffffffffffffffffffffffffffffffffffffffffffffffffffffff19166020820180517bffffffffffffffffffffffffffffffffffffffffffffffffffffffff838183161783525050505061207b565b505050565b611dfd612095565b73ffffffffffffffffffffffffffffffffffffffff16611e1b610d2d565b73ffffffffffffffffffffffffffffffffffffffff1614611e7a57611e3e612095565b6040517f118cdaa7000000000000000000000000000000000000000000000000000000008152600401611e71919061246d565b60405180910390fd5b565b60008060009054906101000a900473ffffffffffffffffffffffffffffffffffffffff169050816000806101000a81548173ffffffffffffffffffffffffffffffffffffffff021916908373ffffffffffffffffffffffffffffffffffffffff1602179055508173ffffffffffffffffffffffffffffffffffffffff168173ffffffffffffffffffffffffffffffffffffffff167f8be0079c531659141344cd1fd0a4f28419497f9722a3daafe3b4186f6b6457e060405160405180910390a35050565b611fd88282604051602401611f5692919061339b565b6040516020818303038152906040527fb60e72cc000000000000000000000000000000000000000000000000000000007bffffffffffffffffffffffffffffffffffffffffffffffffffffffff19166020820180517bffffffffffffffffffffffffffffffffffffffffffffffffffffffff838183161783525050505061207b565b5050565b612076838383604051602401611ff4939291906133cb565b6040516020818303038152906040527f1c7ec448000000000000000000000000000000000000000000000000000000007bffffffffffffffffffffffffffffffffffffffffffffffffffffffff19166020820180517bffffffffffffffffffffffffffffffffffffffffffffffffffffffff838183161783525050505061207b565b505050565b6120928161208a61209d6120be565b63ffffffff16565b50565b600033905090565b60006a636f6e736f6c652e6c6f679050600080835160208501845afa505050565b6120c9819050919050565b6120d1613409565b565b6000604051905090565b600080fd5b600080fd5b6000819050919050565b6120fa816120e7565b811461210557600080fd5b50565b600081359050612117816120f1565b92915050565b600060208284031215612133576121326120dd565b5b600061214184828501612108565b91505092915050565b600073ffffffffffffffffffffffffffffffffffffffff82169050919050565b60006121758261214a565b9050919050565b6121858161216a565b811461219057600080fd5b50565b6000813590506121a28161217c565b92915050565b600080fd5b600080fd5b600080fd5b60008083601f8401126121cd576121cc6121a8565b5b8235905067ffffffffffffffff8111156121ea576121e96121ad565b5b602083019150836001820283011115612206576122056121b2565b5b9250929050565b600080600080600060808688031215612229576122286120dd565b5b600061223788828901612193565b955050602061224888828901612193565b945050604061225988828901612108565b935050606086013567ffffffffffffffff81111561227a576122796120e2565b5b612286888289016121b7565b92509250509295509295909350565b60007fffffffff0000000000000000000000000000000000000000000000000000000082169050919050565b6122ca81612295565b82525050565b60006020820190506122e560008301846122c1565b92915050565b6122f4816120e7565b82525050565b600060208201905061230f60008301846122eb565b92915050565b60006020828403121561232b5761232a6120dd565b5b600061233984828501612193565b91505092915050565b60008115159050919050565b61235781612342565b82525050565b6000602082019050612372600083018461234e565b92915050565b61238181612342565b811461238c57600080fd5b50565b60008135905061239e81612378565b92915050565b600080604083850312156123bb576123ba6120dd565b5b60006123c985828601612193565b92505060206123da8582860161238f565b9150509250929050565b6000819050919050565b60006124096124046123ff8461214a565b6123e4565b61214a565b9050919050565b600061241b826123ee565b9050919050565b600061242d82612410565b9050919050565b61243d81612422565b82525050565b60006020820190506124586000830184612434565b92915050565b6124678161216a565b82525050565b6000602082019050612482600083018461245e565b92915050565b6000806040838503121561249f5761249e6120dd565b5b60006124ad85828601612193565b92505060206124be85828601612108565b9150509250929050565b60006080820190506124dd60008301876122eb565b6124ea60208301866122eb565b6124f760408301856122eb565b612504606083018461234e565b95945050505050565b600061251882612410565b9050919050565b6125288161250d565b82525050565b6000602082019050612543600083018461251f565b92915050565b600080604083850312156125605761255f6120dd565b5b600061256e85828601612108565b925050602061257f85828601612193565b9150509250929050565b60006101008201905061259f600083018b61245e565b6125ac602083018a6122eb565b6125b960408301896122eb565b6125c660608301886122eb565b6125d360808301876122eb565b6125e060a08301866122eb565b6125ed60c083018561234e565b6125fa60e083018461234e565b9998505050505050505050565b6000806000606084860312156126205761261f6120dd565b5b600061262e86828701612108565b935050602061263f86828701612108565b925050604061265086828701612108565b9150509250925092565b60008060408385031215612671576126706120dd565b5b600061267f85828601612108565b925050602061269085828601612108565b9150509250929050565b7f4e487b7100000000000000000000000000000000000000000000000000000000600052603260045260246000fd5b600082825260208201905092915050565b7f416c72656164792077697468647261776e000000000000000000000000000000600082015250565b60006127106011836126c9565b915061271b826126da565b602082019050919050565b6000602082019050818103600083015261273f81612703565b9050919050565b7f4c6971756964697479206973206c6f636b656400000000000000000000000000600082015250565b600061277c6013836126c9565b915061278782612746565b602082019050919050565b600060208201905081810360008301526127ab8161276f565b9050919050565b7f4e487b7100000000000000000000000000000000000000000000000000000000600052601160045260246000fd5b60006127ec826120e7565b91506127f7836120e7565b925082820390508181111561280f5761280e6127b2565b5b92915050565b6000612820826120e7565b915061282b836120e7565b9250828201905080821115612843576128426127b2565b5b92915050565b6000612854826120e7565b915061285f836120e7565b925082820261286d816120e7565b91508282048414831517612884576128836127b2565b5b5092915050565b7f4c6971756964697479206c6f636b656420696e206c6f616e7300000000000000600082015250565b60006128c16019836126c9565b91506128cc8261288b565b602082019050919050565b600060208201905081810360008301526128f0816128b4565b9050919050565b600081905092915050565b50565b60006129126000836128f7565b915061291d82612902565b600082019050919050565b600061293382612905565b9150819050919050565b7f5472616e73666572206661696c65640000000000000000000000000000000000600082015250565b6000612973600f836126c9565b915061297e8261293d565b602082019050919050565b600060208201905081810360008301526129a281612966565b9050919050565b7f4e6f7420656e6f75676820617070726f76616c73000000000000000000000000600082015250565b60006129df6014836126c9565b91506129ea826129a9565b602082019050919050565b60006020820190508181036000830152612a0e816129d2565b9050919050565b7f416c72656164792072656c656173656400000000000000000000000000000000600082015250565b6000612a4b6010836126c9565b9150612a5682612a15565b602082019050919050565b60006020820190508181036000830152612a7a81612a3e565b9050919050565b7f5661756c742052657365727665204c696d697420526561636865640000000000600082015250565b6000612ab7601b836126c9565b9150612ac282612a81565b602082019050919050565b60006020820190508181036000830152612ae681612aaa565b9050919050565b6000604082019050612b02600083018561245e565b612b0f60208301846122eb565b9392505050565b6000604082019050612b2b60008301856122eb565b612b3860208301846122eb565b9392505050565b6000604082019050612b54600083018561245e565b612b61602083018461234e565b9392505050565b7f4e6f7420616e2061756469746f72000000000000000000000000000000000000600082015250565b6000612b9e600e836126c9565b9150612ba982612b68565b602082019050919050565b60006020820190508181036000830152612bcd81612b91565b9050919050565b7f4e6f2073756368206c6f616e0000000000000000000000000000000000000000600082015250565b6000612c0a600c836126c9565b9150612c1582612bd4565b602082019050919050565b60006020820190508181036000830152612c3981612bfd565b9050919050565b7f416c726561647920617070726f76656400000000000000000000000000000000600082015250565b6000612c766010836126c9565b9150612c8182612c40565b602082019050919050565b60006020820190508181036000830152612ca581612c69565b9050919050565b6000612cb7826120e7565b91507fffffffffffffffffffffffffffffffffffffffffffffffffffffffffffffffff8203612ce957612ce86127b2565b5b600182019050919050565b6000606082019050612d0960008301866122eb565b612d16602083018561245e565b612d2360408301846122eb565b949350505050565b7f4c6f616e206e6f74206163746976650000000000000000000000000000000000600082015250565b6000612d61600f836126c9565b9150612d6c82612d2b565b602082019050919050565b60006020820190508181036000830152612d9081612d54565b9050919050565b7f416c726561647920726570616964000000000000000000000000000000000000600082015250565b6000612dcd600e836126c9565b9150612dd882612d97565b602082019050919050565b60006020820190508181036000830152612dfc81612dc0565b9050919050565b6000606082019050612e18600083018661245e565b612e25602083018561245e565b612e3260408301846122eb565b949350505050565b600081519050612e4981612378565b92915050565b600060208284031215612e6557612e646120dd565b5b6000612e7384828501612e3a565b91505092915050565b7f4d757374206465706f73697420736f6d657468696e6700000000000000000000600082015250565b6000612eb26016836126c9565b9150612ebd82612e7c565b602082019050919050565b60006020820190508181036000830152612ee181612ea5565b9050919050565b600080fd5b6000601f19601f8301169050919050565b7f4e487b7100000000000000000000000000000000000000000000000000000000600052604160045260246000fd5b612f3682612eed565b810181811067ffffffffffffffff82111715612f5557612f54612efe565b5b80604052505050565b6000612f686120d3565b9050612f748282612f2d565b919050565b600080fd5b600080fd5b600067ffffffffffffffff821115612f9e57612f9d612efe565b5b612fa782612eed565b9050602081019050919050565b60005b83811015612fd2578082015181840152602081019050612fb7565b60008484015250505050565b6000612ff1612fec84612f83565b612f5e565b90508281526020810184848401111561300d5761300c612f7e565b5b613018848285612fb4565b509392505050565b600082601f830112613035576130346121a8565b5b8151613045848260208601612fde565b91505092915050565b60008151905061305d816120f1565b92915050565b6003811061307057600080fd5b50565b60008151905061308281613063565b92915050565b600060a0828403121561309e5761309d612ee8565b5b6130a860a0612f5e565b9050600082015167ffffffffffffffff8111156130c8576130c7612f79565b5b6130d484828501613020565b60008301525060206130e88482850161304e565b60208301525060406130fc84828501613073565b604083015250606061311084828501612e3a565b606083015250608082015167ffffffffffffffff81111561313457613133612f79565b5b61314084828501613020565b60808301525092915050565b600060208284031215613162576131616120dd565b5b600082015167ffffffffffffffff8111156131805761317f6120e2565b5b61318c84828501613088565b91505092915050565b7f4173736574206d75737420626520766572696669656420666972737400000000600082015250565b60006131cb601c836126c9565b91506131d682613195565b602082019050919050565b600060208201905081810360008301526131fa816131be565b9050919050565b7f4578636565647320313078204c65766572616765206c696d6974000000000000600082015250565b6000613237601a836126c9565b915061324282613201565b602082019050919050565b600060208201905081810360008301526132668161322a565b9050919050565b7f4e487b7100000000000000000000000000000000000000000000000000000000600052601260045260246000fd5b60006132a7826120e7565b91506132b2836120e7565b9250826132c2576132c161326d565b5b828204905092915050565b600081519050919050565b60006132e3826132cd565b6132ed81856126c9565b93506132fd818560208601612fb4565b61330681612eed565b840191505092915050565b6000608082019050818103600083015261332b81876132d8565b905061333a602083018661245e565b61334760408301856122eb565b61335460608301846122eb565b95945050505050565b6000606082019050818103600083015261337781866132d8565b905061338660208301856122eb565b61339360408301846122eb565b949350505050565b600060408201905081810360008301526133b581856132d8565b90506133c460208301846122eb565b9392505050565b600060608201905081810360008301526133e581866132d8565b90506133f460208301856122eb565b613401604083018461245e565b949350505050565b7f4e487b7100000000000000000000000000000000000000000000000000000000600052605160045260246000fdfe4c69717569646974792077697468647261776e2062792025733a202573202b20257320696e7465726573744c6971756964697479206465706f73697465642062792025733a202573207765692c206c6f636b656420756e74696c20257341756469746f7220257320617070726f766564206c6f616e2025732e20546f74616c3a20257346756e64732052454c454153454420666f72206c6f616e2025733a20257320544859a26469706673582212205930933d72cfec6603c974ffd1933a7f34d386aed40baf80bb06acf27886331864736f6c63430008140033",
  "linkReferences": {},
  "deployedLinkReferences": {}
}